:0D04A400C0F9A4B0999282F88090BFFFC605
:10046200010801010A00010B00010900010F00014E
:04047200103CC10079
:10044B0012036C12000E1204971201921204321254
:07045B00001E12025D80F299
:10036C00E5A0541F4480F5A07580FFE5A0541F4400
:10037C00A0F5A0E4F580E5A0541F44C0F5A075805D
:0D038C00FFE5A0541F44E0F5A07580FF229E
:10043200E50824FE600B14600C2402700B750E1488
:0904420022750E1E22750E4622E1
:0D000E00758CFF758AF6D28CD2A9D2AF2274
:03000B0002032FBE
:10032F00C0E0C0D075D000C006C007050AE50AC3FB
:10033F00950E5004D2B4801CAF0A7E00C3EF9464B4
:10034F00748094805004C2B4800AEF64644E7004C9
:0D035F00D2B4F50AD007D006D0D0D0E032DD
:1002AA0093FD7F011203A11202CE9004AEE493FDE6
:1002BA007F021203A11F1202CEA37F03E493FD1251
:0402CA0003A17F010C
:1002CE007E00D3EF9400EE940040147D2A7C03ED63
:0F02DE001D70011CED4C70F7EF1F70E61E80E3E2
:0102ED0022EE
:1001920020B31D7F051202CE20B36A0508D3E508FD
:1001A200940374809480400375080120B35780FB48
:1001B20020B2267F051202CE20B24AD28CD28E7491
:1001C2003C250FF50FD39478748094804003E4F5B6
:1001D2000F850F1020B22E80FB20B10C7F0512027A
:1001E200CE20B121E4F5102220B01A7F051202CEF2
:1001F20020B00F200007750901D2008005E4F5093F
:06020200C20030B0FD2235
:080399009004AEE493FDE4FFC3
:1003A100E5A0541F44C0F5A0A8077401088002C34A
:1003B10033D8FCF580E5A0541F44E0F5A08D8022E0
:10001E00E509146052046003020105E5107006C282
:10002E008CC28EC2B41203990F1202CEE508900450
:10003E00A41202AA9004A47F041202C6E51075F061
:10004E00648493FD7F051202C9E51075F00A84756C
:10005E00F00A84E5F093FD7F061202C9E51075F0F3
:10006E000A84E5F00200E81202EE8E0C8F0DD3E545
:10007E000F9478748094804003E4F50FE5107006B9
:10008E00C28CC28EC2B41203990F1202CE9004A873
:10009E00E41202AAE493FD7F041202C9AE0CAF0D66
:1000AE007C007D0A12020874A42FF58274043EF5BA
:1000BE0083E493FD7F051202C9AE0CAF0D7C007D6B
:1000CE000A12020874A42DF58274043CF583E4939D
:1000DE00FD7F061202C99004B0E493FD7F07120261
:1000EE00C9E5A0541F44C0F5A07580FFE5A0541FBC
:0800FE0044E0F5A07580FF222B
:0D049700758DD8758BF0D28ED2ABD2AF220E
:03001B0002047765
:10047700C0E0050BE50B646470041510F50BD0E0C4
:010487003242
:1002EE001203E87FCC1203C17F441203C17F0112B7
:1002FE0002CE1203E87FCC1203C17FBE1203C112DD
:10030E00040F8F1112040F8F121203E8E512FEE58F
:10031E0011FFEEC4F854F0C868FEEFC4540F48FF46
:01032E0022AC
:10025D00E50824FE60161460222402702BE5A054DC
:10026D001F4480F5A07580FFC280801CE5A0541F3F
:10027D004480F5A07580FFC281800DE5A0541F4418
:10028D0080F5A07580FFC282E5107010E5A0541FA7
:0D029D004480F5A07580FF7F011202CE2283
:040488007F327E0041
:0B048C00EF1FAC0670011E4C70F62242
:0203C100AD0786
:1003C300E4FBEBC39408748094805012C294ED1341
:1003D3009294120488D294EDC313FD0B80E47F3210
:0503E3007E0002048C05
:10040F00E4FBEBC39408748094805014C294EDC342
:10041F0013FDD2943094034305801204880B80E2BD
:02042F00AF0517
:0104310022A8
:1003E800C201D2947F787E0012048CC2947F207E52
:1003F8000312048CD2947F647E0012048CA294921F
:0604080001120488A201AC
:01040E0022CB
:03000000020106F4
:0C010600787FE4F6D8FD75812002014DE1
:10020800BC000BBE0029EF8DF084FFADF022E4CCDA
:10021800F875F008EF2FFFEE33FEEC33FCEE9DECA3
:10022800984005FCEE9DFE0FD5F0E9E4CEFD22EDE9
:10023800F8F5F0EE8420D21CFEADF075F008EF2F33
:10024800FFED33FD4007985006D5F0F222C398FD24
:050258000FD5F0EA22C1
:1001120002044BE493A3F8E493A34003F68001F2B4
:1001220008DFF48029E493A3F85407240CC8C333EE
:10013200C4540F4420C8834004F456800146F6DFBD
:10014200E4800B0102040810204080900462E47EE7
:10015200019360BCA3FF543F30E509541FFEE493B2
:10016200A360010ECF54C025E060A840B8E493A379
:10017200FAE493A3F8E493A3C8C582C8CAC583CAA4
:10018200F0A3C8C582C8CAC583CADFE9DEE780BE5C
:010476000085
:00000001FF
